{"abi":[{"type":"constructor","inputs":[{"name":"_ibt","type":"address","internalType":"address"}],"stateMutability":"nonpayable"},{"type":"function","name":"burn","inputs":[{"name":"amount","type":"uint256","internalType":"uint256"},{"name":"suiRecipient","type":"bytes","internalType":"bytes"}],"outputs":[],"stateMutability":"nonpayable"},{"type":"function","name":"ibt","inputs":[],"outputs":[{"name":"","type":"address","internalType":"contract IBT"}],"stateMutability":"view"},{"type":"function","name":"mint","inputs":[{"name":"to","type":"address","internalType":"address"},{"name":"amount","type":"uint256","internalType":"uint256"}],"outputs":[],"stateMutability":"nonpayable"},{"type":"function","name":"nonce","inputs":[],"outputs":[{"name":"","type":"uint256","internalType":"uint256"}],"stateMutability":"view"},{"type":"function","name":"owner","inputs":[],"outputs":[{"name":"","type":"address","internalType":"address"}],"stateMutability":"view"},{"type":"function","name":"renounceOwnership","inputs":[],"outputs":[],"stateMutability":"nonpayable"},{"type":"function","name":"transferOwnership","inputs":[{"name":"newOwner","type":"address","internalType":"address"}],"outputs":[],"stateMutability":"nonpayable"},{"type":"event","name":"Burned","inputs":[{"name":"from","type":"address","indexed":true,"internalType":"address"},{"name":"amount","type":"uint256","indexed":false,"internalType":"uint256"},{"name":"suiRecipient","type":"bytes","indexed":false,"internalType":"bytes"},{"name":"nonce","type":"uint256","indexed":false,"internalType":"uint256"}],"anonymous":false},{"type":"event","name":"OwnershipTransferred","inputs":[{"name":"previousOwner","type":"address","indexed":true,"internalType":"address"},{"name":"newOwner","type":"address","indexed":true,"internalType":"address"}],"anonymous":false},{"type":"error","name":"OwnableInvalidOwner","inputs":[{"name":"owner","type":"address","internalType":"address"}]},{"type":"error","name":"OwnableUnauthorizedAccount","inputs":[{"name":"account","type":"address","internalType":"address"}]}],"bytecode":{"object":"0x608060405234801561000f575f5ffd5b50604051610d4d380380610d4d83398181016040528101906100319190610217565b335f73ffffffffffffffffffffffffffffffffffffffff168173ffffffffffffffffffffffffffffffffffffffff16036100a2575f6040517f1e4fbdf70000000000000000000000000000000000000000000000000000000081526004016100999190610251565b60405180910390fd5b6100b1816100f860201b60201c565b508060015f6101000a81548173ffffffffffffffffffffffffffffffffffffffff021916908373ffffffffffffffffffffffffffffffffffffffff1602179055505061026a565b5f5f5f9054906101000a900473ffffffffffffffffffffffffffffffffffffffff169050815f5f6101000a81548173ffffffffffffffffffffffffffffffffffffffff021916908373ffffffffffffffffffffffffffffffffffffffff1602179055508173ffffffffffffffffffffffffffffffffffffffff168173ffffffffffffffffffffffffffffffffffffffff167f8be0079c531659141344cd1fd0a4f28419497f9722a3daafe3b4186f6b6457e060405160405180910390a35050565b5f5ffd5b5f73ffffffffffffffffffffffffffffffffffffffff82169050919050565b5f6101e6826101bd565b9050919050565b6101f6816101dc565b8114610200575f5ffd5b50565b5f81519050610211816101ed565b92915050565b5f6020828403121561022c5761022b6101b9565b5b5f61023984828501610203565b91505092915050565b61024b816101dc565b82525050565b5f6020820190506102645f830184610242565b92915050565b610ad6806102775f395ff3fe608060405234801561000f575f5ffd5b506004361061007b575f3560e01c8063affed0e011610059578063affed0e0146100c3578063c43f357b146100e1578063f2fde38b146100ff578063fe9d93031461011b5761007b565b806340c10f191461007f578063715018a61461009b5780638da5cb5b146100a5575b5f5ffd5b61009960048036038101906100949190610675565b610137565b005b6100a36101cc565b005b6100ad6101df565b6040516100ba91906106c2565b60405180910390f35b6100cb610206565b6040516100d891906106ea565b60405180910390f35b6100e961020c565b6040516100f6919061075e565b60405180910390f35b61011960048036038101906101149190610777565b610231565b005b61013560048036038101906101309190610803565b6102b5565b005b61013f610491565b60015f9054906101000a900473ffffffffffffffffffffffffffffffffffffffff1673ffffffffffffffffffffffffffffffffffffffff166340c10f1983836040518363ffffffff1660e01b815260040161019b929190610860565b5f604051808303815f87803b1580156101b2575f5ffd5b505af11580156101c4573d5f5f3e3d5ffd5b505050505050565b6101d4610491565b6101dd5f610518565b565b5f5f5f9054906101000a900473ffffffffffffffffffffffffffffffffffffffff16905090565b60025481565b60015f9054906101000a900473ffffffffffffffffffffffffffffffffffffffff1681565b610239610491565b5f73ffffffffffffffffffffffffffffffffffffffff168173ffffffffffffffffffffffffffffffffffffffff16036102a9575f6040517f1e4fbdf70000000000000000000000000000000000000000000000000000000081526004016102a091906106c2565b60405180910390fd5b6102b281610518565b50565b5f83116102f7576040517f08c379a00000000000000000000000000000000000000000000000000000000081526004016102ee906108e1565b60405180910390fd5b60015f9054906101000a900473ffffffffffffffffffffffffffffffffffffffff1673ffffffffffffffffffffffffffffffffffffffff166323b872dd3330866040518463ffffffff1660e01b8152600401610355939291906108ff565b6020604051808303815f875af1158015610371573d5f5f3e3d5ffd5b505050506040513d601f19601f820116820180604052508101906103959190610969565b5060015f9054906101000a900473ffffffffffffffffffffffffffffffffffffffff1673ffffffffffffffffffffffffffffffffffffffff16639dc29fac30856040518363ffffffff1660e01b81526004016103f2929190610860565b5f604051808303815f87803b158015610409575f5ffd5b505af115801561041b573d5f5f3e3d5ffd5b505050503373ffffffffffffffffffffffffffffffffffffffff167f2b1155a5de2441854f3781130b980daa499b3412053ee40fcde076774bb12df284848460025460405161046d94939291906109ee565b60405180910390a260025f81548092919061048790610a59565b9190505550505050565b6104996105d9565b73ffffffffffffffffffffffffffffffffffffffff166104b76101df565b73ffffffffffffffffffffffffffffffffffffffff1614610516576104da6105d9565b6040517f118cdaa700000000000000000000000000000000000000000000000000000000815260040161050d91906106c2565b60405180910390fd5b565b5f5f5f9054906101000a900473ffffffffffffffffffffffffffffffffffffffff169050815f5f6101000a81548173ffffffffffffffffffffffffffffffffffffffff021916908373ffffffffffffffffffffffffffffffffffffffff1602179055508173ffffffffffffffffffffffffffffffffffffffff168173ffffffffffffffffffffffffffffffffffffffff167f8be0079c531659141344cd1fd0a4f28419497f9722a3daafe3b4186f6b6457e060405160405180910390a35050565b5f33905090565b5f5ffd5b5f5ffd5b5f73ffffffffffffffffffffffffffffffffffffffff82169050919050565b5f610611826105e8565b9050919050565b61062181610607565b811461062b575f5ffd5b50565b5f8135905061063c81610618565b92915050565b5f819050919050565b61065481610642565b811461065e575f5ffd5b50565b5f8135905061066f8161064b565b92915050565b5f5f6040838503121561068b5761068a6105e0565b5b5f6106988582860161062e565b92505060206106a985828601610661565b9150509250929050565b6106bc81610607565b82525050565b5f6020820190506106d55f8301846106b3565b92915050565b6106e481610642565b82525050565b5f6020820190506106fd5f8301846106db565b92915050565b5f819050919050565b5f61072661072161071c846105e8565b610703565b6105e8565b9050919050565b5f6107378261070c565b9050919050565b5f6107488261072d565b9050919050565b6107588161073e565b82525050565b5f6020820190506107715f83018461074f565b92915050565b5f6020828403121561078c5761078b6105e0565b5b5f6107998482850161062e565b91505092915050565b5f5ffd5b5f5ffd5b5f5ffd5b5f5f83601f8401126107c3576107c26107a2565b5b8235905067ffffffffffffffff8111156107e0576107df6107a6565b5b6020830191508360018202830111156107fc576107fb6107aa565b5b9250929050565b5f5f5f6040848603121561081a576108196105e0565b5b5f61082786828701610661565b935050602084013567ffffffffffffffff811115610848576108476105e4565b5b610854868287016107ae565b92509250509250925092565b5f6040820190506108735f8301856106b3565b61088060208301846106db565b9392505050565b5f82825260208201905092915050565b7f616d6f756e743d300000000000000000000000000000000000000000000000005f82015250565b5f6108cb600883610887565b91506108d682610897565b602082019050919050565b5f6020820190508181035f8301526108f8816108bf565b9050919050565b5f6060820190506109125f8301866106b3565b61091f60208301856106b3565b61092c60408301846106db565b949350505050565b5f8115159050919050565b61094881610934565b8114610952575f5ffd5b50565b5f815190506109638161093f565b92915050565b5f6020828403121561097e5761097d6105e0565b5b5f61098b84828501610955565b91505092915050565b5f82825260208201905092915050565b828183375f83830152505050565b5f601f19601f8301169050919050565b5f6109cd8385610994565b93506109da8385846109a4565b6109e3836109b2565b840190509392505050565b5f606082019050610a015f8301876106db565b8181036020830152610a148185876109c2565b9050610a2360408301846106db565b95945050505050565b7f4e487b71000000000000000000000000000000000000000000000000000000005f52601160045260245ffd5b5f610a6382610642565b91507fffffffffffffffffffffffffffffffffffffffffffffffffffffffffffffffff8203610a9557610a94610a2c565b5b60018201905091905056fea26469706673582212209de06d76e42324758ba12049a589c64b578f7db66fbc278019f8b15c6fcaa9b164736f6c63430008210033","linkReferences":{}},"methodIdentifiers":{"burn(uint256,bytes)":"fe9d9303","ibt()":"c43f357b","mint(address,uint256)":"40c10f19","nonce()":"affed0e0","owner()":"8da5cb5b","renounceOwnership()":"715018a6","transferOwnership(address)":"f2fde38b"},"id":6}